{"abi":[{"type":"constructor","inputs":[{"name":"_userReg","type":"address","internalType":"address"},{"name":"_partyReg","type":"address","internalType":"address"}],"stateMutability":"nonpayable"},{"type":"function","name":"hasVoted","inputs":[{"name":"","type":"address","internalType":"address"}],"outputs":[{"name":"","type":"bool","internalType":"bool"}],"stateMutability":"view"},{"type":"function","name":"partyRegistry","inputs":[],"outputs":[{"name":"","type":"address","internalType":"contract PartyRegistry"}],"stateMutability":"view"},{"type":"function","name":"userRegistry","inputs":[],"outputs":[{"name":"","type":"address","internalType":"contract UserRegistry"}],"stateMutability":"view"},{"type":"function","name":"vote","inputs":[{"name":"_partyAddress","type":"address","internalType":"address"}],"outputs":[],"stateMutability":"nonpayable"},{"type":"function","name":"voteCount","inputs":[{"name":"","type":"address","internalType":"address"}],"outputs":[{"name":"","type":"uint256","internalType":"uint256"}],"stateMutability":"view"},{"type":"event","name":"VoteCast","inputs":[{"name":"voter","type":"address","indexed":true,"internalType":"address"},{"name":"party","type":"address","indexed":true,"internalType":"address"}],"anonymous":false}],"bytecode":{"object":"0x608060405234801561000f575f5ffd5b50604051610a20380380610a2083398181016040528101906100319190610115565b815f5f6101000a81548173ffffffffffffffffffffffffffffffffffffffff021916908373ffffffffffffffffffffffffffffffffffffffff1602179055508060015f6101000a81548173ffffffffffffffffffffffffffffffffffffffff021916908373ffffffffffffffffffffffffffffffffffffffff1602179055505050610153565b5f5ffd5b5f73ffffffffffffffffffffffffffffffffffffffff82169050919050565b5f6100e4826100bb565b9050919050565b6100f4816100da565b81146100fe575f5ffd5b50565b5f8151905061010f816100eb565b92915050565b5f5f6040838503121561012b5761012a6100b7565b5b5f61013885828601610101565b925050602061014985828601610101565b9150509250929050565b6108c0806101605f395ff3fe608060405234801561000f575f5ffd5b5060043610610055575f3560e01c806309eef43e146100595780633cced1ca146100895780635c7460d6146100a75780635e3cd7bc146100c55780636dd7d8ea146100f5575b5f5ffd5b610073600480360381019061006e9190610529565b610111565b604051610080919061056e565b60405180910390f35b61009161012e565b60405161009e91906105e2565b60405180910390f35b6100af610153565b6040516100bc919061061b565b60405180910390f35b6100df60048036038101906100da9190610529565b610177565b6040516100ec919061064c565b60405180910390f35b61010f600480360381019061010a9190610529565b61018c565b005b6002602052805f5260405f205f915054906101000a900460ff1681565b60015f9054906101000a900473ffffffffffffffffffffffffffffffffffffffff1681565b5f5f9054906101000a900473ffffffffffffffffffffffffffffffffffffffff1681565b6003602052805f5260405f205f915090505481565b5f5f9054906101000a900473ffffffffffffffffffffffffffffffffffffffff1673ffffffffffffffffffffffffffffffffffffffff1663673448dd336040518263ffffffff1660e01b81526004016101e59190610674565b602060405180830381865afa158015610200573d5f5f3e3d5ffd5b505050506040513d601f19601f8201168201806040525081019061022491906106b7565b610263576040517f08c379a000000000000000000000000000000000000000000000000000000000815260040161025a9061073c565b60405180910390fd5b60015f9054906101000a900473ffffffffffffffffffffffffffffffffffffffff1673ffffffffffffffffffffffffffffffffffffffff1663673448dd826040518263ffffffff1660e01b81526004016102bd9190610674565b602060405180830381865afa1580156102d8573d5f5f3e3d5ffd5b505050506040513d601f19601f820116820180604052508101906102fc91906106b7565b61033b576040517f08c379a0000000000000000000000000000000000000000000000000000000008152600401610332906107a4565b60405180910390fd5b60025f3373ffffffffffffffffffffffffffffffffffffffff1673ffffffffffffffffffffffffffffffffffffffff1681526020019081526020015f205f9054906101000a900460ff16156103c5576040517f08c379a00000000000000000000000000000000000000000000000000000000081526004016103bc9061080c565b60405180910390fd5b600160035f8373ffffffffffffffffffffffffffffffffffffffff1673ffffffffffffffffffffffffffffffffffffffff1681526020019081526020015f205f8282546104129190610857565b92505081905550600160025f3373ffffffffffffffffffffffffffffffffffffffff1673ffffffffffffffffffffffffffffffffffffffff1681526020019081526020015f205f6101000a81548160ff0219169083151502179055508073ffffffffffffffffffffffffffffffffffffffff163373ffffffffffffffffffffffffffffffffffffffff167f113ed09b18bb8fe2635af16f21d67464502d920ff1015abfe08dbe9a2971a7e260405160405180910390a350565b5f5ffd5b5f73ffffffffffffffffffffffffffffffffffffffff82169050919050565b5f6104f8826104cf565b9050919050565b610508816104ee565b8114610512575f5ffd5b50565b5f81359050610523816104ff565b92915050565b5f6020828403121561053e5761053d6104cb565b5b5f61054b84828501610515565b91505092915050565b5f8115159050919050565b61056881610554565b82525050565b5f6020820190506105815f83018461055f565b92915050565b5f819050919050565b5f6105aa6105a56105a0846104cf565b610587565b6104cf565b9050919050565b5f6105bb82610590565b9050919050565b5f6105cc826105b1565b9050919050565b6105dc816105c2565b82525050565b5f6020820190506105f55f8301846105d3565b92915050565b5f610605826105b1565b9050919050565b610615816105fb565b82525050565b5f60208201905061062e5f83018461060c565b92915050565b5f819050919050565b61064681610634565b82525050565b5f60208201905061065f5f83018461063d565b92915050565b61066e816104ee565b82525050565b5f6020820190506106875f830184610665565b92915050565b61069681610554565b81146106a0575f5ffd5b50565b5f815190506106b18161068d565b92915050565b5f602082840312156106cc576106cb6104cb565b5b5f6106d9848285016106a3565b91505092915050565b5f82825260208201905092915050565b7f566f746572206e6f7420617070726f76656400000000000000000000000000005f82015250565b5f6107266012836106e2565b9150610731826106f2565b602082019050919050565b5f6020820190508181035f8301526107538161071a565b9050919050565b7f5061727479206e6f7420617070726f76656400000000000000000000000000005f82015250565b5f61078e6012836106e2565b91506107998261075a565b602082019050919050565b5f6020820190508181035f8301526107bb81610782565b9050919050565b7f416c726561647920766f746564000000000000000000000000000000000000005f82015250565b5f6107f6600d836106e2565b9150610801826107c2565b602082019050919050565b5f6020820190508181035f830152610823816107ea565b9050919050565b7f4e487b71000000000000000000000000000000000000000000000000000000005f52601160045260245ffd5b5f61086182610634565b915061086c83610634565b92508282019050808211156108845761088361082a565b5b9291505056fea2646970667358221220a9825f3271a6e8f68dded98c4071dd78aeec4f2af737a2c5d2dd80260878682c64736f6c63430008210033","linkReferences":{}},"methodIdentifiers":{"hasVoted(address)":"09eef43e","partyRegistry()":"3cced1ca","userRegistry()":"5c7460d6","vote(address)":"6dd7d8ea","voteCount(address)":"5e3cd7bc"},"id":16}