{"abi":[{"type":"constructor","inputs":[],"stateMutability":"nonpayable"},{"type":"function","name":"admin","inputs":[],"outputs":[{"name":"","type":"address","internalType":"address"}],"stateMutability":"view"},{"type":"function","name":"approveParty","inputs":[{"name":"_party","type":"address","internalType":"address"}],"outputs":[],"stateMutability":"nonpayable"},{"type":"function","name":"isApproved","inputs":[{"name":"_party","type":"address","internalType":"address"}],"outputs":[{"name":"","type":"bool","internalType":"bool"}],"stateMutability":"view"},{"type":"function","name":"parties","inputs":[{"name":"","type":"address","internalType":"address"}],"outputs":[{"name":"partyName","type":"string","internalType":"string"},{"name":"regNumber","type":"string","internalType":"string"},{"name":"status","type":"uint8","internalType":"enum PartyRegistry.Status"}],"stateMutability":"view"},{"type":"function","name":"registerAsParty","inputs":[{"name":"_partyAddress","type":"address","internalType":"address"},{"name":"_partyName","type":"string","internalType":"string"},{"name":"_regNumber","type":"string","internalType":"string"}],"outputs":[],"stateMutability":"nonpayable"},{"type":"event","name":"PartyRegistrationRequested","inputs":[{"name":"partyAddress","type":"address","indexed":true,"internalType":"address"},{"name":"name","type":"string","indexed":false,"internalType":"string"}],"anonymous":false}],"bytecode":{"object":"0x6080604052348015600e575f5ffd5b50335f5f6101000a81548173ffffffffffffffffffffffffffffffffffffffff021916908373ffffffffffffffffffffffffffffffffffffffff160217905550610f9c8061005b5f395ff3fe608060405234801561000f575f5ffd5b5060043610610055575f3560e01c80631bffc6a6146100595780634f23520714610075578063673448dd146100a757806370627545146100d7578063f851a440146100f3575b5f5ffd5b610073600480360381019061006e919061089c565b610111565b005b61008f600480360381019061008a9190610924565b61036b565b60405161009e93929190610a22565b60405180910390f35b6100c160048036038101906100bc9190610924565b6104a9565b6040516100ce9190610a7f565b60405180910390f35b6100f160048036038101906100ec9190610924565b610525565b005b6100fb6106d1565b6040516101089190610aa7565b60405180910390f35b5f5f9054906101000a900473ffffffffffffffffffffffffffffffffffffffff1673ffffffffffffffffffffffffffffffffffffffff163373ffffffffffffffffffffffffffffffffffffffff161461019f576040517f08c379a000000000000000000000000000000000000000000000000000000000815260040161019690610b0a565b60405180910390fd5b5f60038111156101b2576101b16109af565b5b60015f8573ffffffffffffffffffffffffffffffffffffffff1673ffffffffffffffffffffffffffffffffffffffff1681526020019081526020015f206002015f9054906101000a900460ff166003811115610211576102106109af565b5b14610251576040517f08c379a000000000000000000000000000000000000000000000000000000000815260040161024890610b72565b60405180910390fd5b60405180606001604052808381526020018281526020016002600381111561027c5761027b6109af565b5b81525060015f8573ffffffffffffffffffffffffffffffffffffffff1673ffffffffffffffffffffffffffffffffffffffff1681526020019081526020015f205f820151815f0190816102cf9190610da7565b5060208201518160010190816102e59190610da7565b506040820151816002015f6101000a81548160ff021916908360038111156103105761030f6109af565b5b02179055509050508273ffffffffffffffffffffffffffffffffffffffff167faa300db02bf3a86ad9eacd7f338438a99d7870c43b15b9d4987b4cfc177cba7d8360405161035e9190610e76565b60405180910390a2505050565b6001602052805f5260405f205f91509050805f01805461038a90610bbd565b80601f01602080910402602001604051908101604052809291908181526020018280546103b690610bbd565b80156104015780601f106103d857610100808354040283529160200191610401565b820191905f5260205f20905b8154815290600101906020018083116103e457829003601f168201915b50505050509080600101805461041690610bbd565b80601f016020809104026020016040519081016040528092919081815260200182805461044290610bbd565b801561048d5780601f106104645761010080835404028352916020019161048d565b820191905f5260205f20905b81548152906001019060200180831161047057829003601f168201915b505050505090806002015f9054906101000a900460ff16905083565b5f600260038111156104be576104bd6109af565b5b60015f8473ffffffffffffffffffffffffffffffffffffffff1673ffffffffffffffffffffffffffffffffffffffff1681526020019081526020015f206002015f9054906101000a900460ff16600381111561051d5761051c6109af565b5b149050919050565b5f5f9054906101000a900473ffffffffffffffffffffffffffffffffffffffff1673ffffffffffffffffffffffffffffffffffffffff163373ffffffffffffffffffffffffffffffffffffffff16146105b3576040517f08c379a00000000000000000000000000000000000000000000000000000000081526004016105aa90610ee0565b60405180910390fd5b600160038111156105c7576105c66109af565b5b60015f8373ffffffffffffffffffffffffffffffffffffffff1673ffffffffffffffffffffffffffffffffffffffff1681526020019081526020015f206002015f9054906101000a900460ff166003811115610626576106256109af565b5b14610666576040517f08c379a000000000000000000000000000000000000000000000000000000000815260040161065d90610f48565b60405180910390fd5b600260015f8373ffffffffffffffffffffffffffffffffffffffff1673ffffffffffffffffffffffffffffffffffffffff1681526020019081526020015f206002015f6101000a81548160ff021916908360038111156106c9576106c86109af565b5b021790555050565b5f5f9054906101000a900473ffffffffffffffffffffffffffffffffffffffff1681565b5f604051905090565b5f5ffd5b5f5ffd5b5f73ffffffffffffffffffffffffffffffffffffffff82169050919050565b5f61072f82610706565b9050919050565b61073f81610725565b8114610749575f5ffd5b50565b5f8135905061075a81610736565b92915050565b5f5ffd5b5f5ffd5b5f601f19601f8301169050919050565b7f4e487b71000000000000000000000000000000000000000000000000000000005f52604160045260245ffd5b6107ae82610768565b810181811067ffffffffffffffff821117156107cd576107cc610778565b5b80604052505050565b5f6107df6106f5565b90506107eb82826107a5565b919050565b5f67ffffffffffffffff82111561080a57610809610778565b5b61081382610768565b9050602081019050919050565b828183375f83830152505050565b5f61084061083b846107f0565b6107d6565b90508281526020810184848401111561085c5761085b610764565b5b610867848285610820565b509392505050565b5f82601f83011261088357610882610760565b5b813561089384826020860161082e565b91505092915050565b5f5f5f606084860312156108b3576108b26106fe565b5b5f6108c08682870161074c565b935050602084013567ffffffffffffffff8111156108e1576108e0610702565b5b6108ed8682870161086f565b925050604084013567ffffffffffffffff81111561090e5761090d610702565b5b61091a8682870161086f565b9150509250925092565b5f60208284031215610939576109386106fe565b5b5f6109468482850161074c565b91505092915050565b5f81519050919050565b5f82825260208201905092915050565b8281835e5f83830152505050565b5f6109818261094f565b61098b8185610959565b935061099b818560208601610969565b6109a481610768565b840191505092915050565b7f4e487b71000000000000000000000000000000000000000000000000000000005f52602160045260245ffd5b600481106109ed576109ec6109af565b5b50565b5f8190506109fd826109dc565b919050565b5f610a0c826109f0565b9050919050565b610a1c81610a02565b82525050565b5f6060820190508181035f830152610a3a8186610977565b90508181036020830152610a4e8185610977565b9050610a5d6040830184610a13565b949350505050565b5f8115159050919050565b610a7981610a65565b82525050565b5f602082019050610a925f830184610a70565b92915050565b610aa181610725565b82525050565b5f602082019050610aba5f830184610a98565b92915050565b7f4f6e6c792041646d696e2063616e2072656769737465722070617274696573005f82015250565b5f610af4601f83610959565b9150610aff82610ac0565b602082019050919050565b5f6020820190508181035f830152610b2181610ae8565b9050919050565b7f416c7265616479207265676973746572656400000000000000000000000000005f82015250565b5f610b5c601283610959565b9150610b6782610b28565b602082019050919050565b5f6020820190508181035f830152610b8981610b50565b9050919050565b7f4e487b71000000000000000000000000000000000000000000000000000000005f52602260045260245ffd5b5f6002820490506001821680610bd457607f821691505b602082108103610be757610be6610b90565b5b50919050565b5f819050815f5260205f209050919050565b5f6020601f8301049050919050565b5f82821b905092915050565b5f60088302610c497fffffffffffffffffffffffffffffffffffffffffffffffffffffffffffffffff82610c0e565b610c538683610c0e565b95508019841693508086168417925050509392505050565b5f819050919050565b5f819050919050565b5f610c97610c92610c8d84610c6b565b610c74565b610c6b565b9050919050565b5f819050919050565b610cb083610c7d565b610cc4610cbc82610c9e565b848454610c1a565b825550505050565b5f5f905090565b610cdb610ccc565b610ce6818484610ca7565b505050565b5f5b82811015610d0c57610d015f828401610cd3565b600181019050610ced565b505050565b601f821115610d5f5782821115610d5e57610d2b81610bed565b610d3483610bff565b610d3d85610bff565b6020861015610d4a575f90505b808301610d5982840382610ceb565b505050505b5b505050565b5f82821c905092915050565b5f610d7f5f1984600802610d64565b1980831691505092915050565b5f610d978383610d70565b9150826002028217905092915050565b610db08261094f565b67ffffffffffffffff811115610dc957610dc8610778565b5b610dd38254610bbd565b610dde828285610d11565b5f60209050601f831160018114610e0f575f8415610dfd578287015190505b610e078582610d8c565b865550610e6e565b601f198416610e1d86610bed565b5f5b82811015610e4457848901518255600182019150602085019450602081019050610e1f565b86831015610e615784890151610e5d601f891682610d70565b8355505b6001600288020188555050505b505050505050565b5f6020820190508181035f830152610e8e8184610977565b905092915050565b7f4f6e6c792041646d696e000000000000000000000000000000000000000000005f82015250565b5f610eca600a83610959565b9150610ed582610e96565b602082019050919050565b5f6020820190508181035f830152610ef781610ebe565b9050919050565b7f4e6f2070656e64696e67207265717565737400000000000000000000000000005f82015250565b5f610f32601283610959565b9150610f3d82610efe565b602082019050919050565b5f6020820190508181035f830152610f5f81610f26565b905091905056fea264697066735822122007811e6c3ed343a2c72a5dbe669418cddc96abdc7ab42f750a18e763c2c703c264736f6c63430008210033","linkReferences":{}},"methodIdentifiers":{"admin()":"f851a440","approveParty(address)":"70627545","isApproved(address)":"673448dd","parties(address)":"4f235207","registerAsParty(address,string,string)":"1bffc6a6"},"id":17}