{"abi":[{"type":"constructor","inputs":[],"stateMutability":"nonpayable"},{"type":"function","name":"admin","inputs":[],"outputs":[{"name":"","type":"address","internalType":"address"}],"stateMutability":"view"},{"type":"function","name":"approveParty","inputs":[{"name":"_party","type":"address","internalType":"address"}],"outputs":[],"stateMutability":"nonpayable"},{"type":"function","name":"isApproved","inputs":[{"name":"_party","type":"address","internalType":"address"}],"outputs":[{"name":"","type":"bool","internalType":"bool"}],"stateMutability":"view"},{"type":"function","name":"parties","inputs":[{"name":"","type":"address","internalType":"address"}],"outputs":[{"name":"partyName","type":"string","internalType":"string"},{"name":"regNumber","type":"string","internalType":"string"},{"name":"status","type":"uint8","internalType":"enum PartyRegistry.Status"}],"stateMutability":"view"},{"type":"function","name":"registerAsParty","inputs":[{"name":"_partyName","type":"string","internalType":"string"},{"name":"_regNumber","type":"string","internalType":"string"}],"outputs":[],"stateMutability":"nonpayable"},{"type":"event","name":"PartyRegistrationRequested","inputs":[{"name":"partyAddress","type":"address","indexed":true,"internalType":"address"},{"name":"name","type":"string","indexed":false,"internalType":"string"}],"anonymous":false}],"bytecode":{"object":"0x6080604052348015600e575f5ffd5b50335f5f6101000a81548173ffffffffffffffffffffffffffffffffffffffff021916908373ffffffffffffffffffffffffffffffffffffffff160217905550610e938061005b5f395ff3fe608060405234801561000f575f5ffd5b5060043610610055575f3560e01c80634f23520714610059578063673448dd1461008b57806370627545146100bb57806385034f17146100d7578063f851a440146100f3575b5f5ffd5b610073600480360381019061006e91906106d1565b610111565b604051610082939291906107df565b60405180910390f35b6100a560048036038101906100a091906106d1565b61024f565b6040516100b2919061083c565b60405180910390f35b6100d560048036038101906100d091906106d1565b6102cb565b005b6100f160048036038101906100ec9190610981565b610477565b005b6100fb610642565b6040516101089190610a06565b60405180910390f35b6001602052805f5260405f205f91509050805f01805461013090610a4c565b80601f016020809104026020016040519081016040528092919081815260200182805461015c90610a4c565b80156101a75780601f1061017e576101008083540402835291602001916101a7565b820191905f5260205f20905b81548152906001019060200180831161018a57829003601f168201915b5050505050908060010180546101bc90610a4c565b80601f01602080910402602001604051908101604052809291908181526020018280546101e890610a4c565b80156102335780601f1061020a57610100808354040283529160200191610233565b820191905f5260205f20905b81548152906001019060200180831161021657829003601f168201915b505050505090806002015f9054906101000a900460ff16905083565b5f600260038111156102645761026361076c565b5b60015f8473ffffffffffffffffffffffffffffffffffffffff1673ffffffffffffffffffffffffffffffffffffffff1681526020019081526020015f206002015f9054906101000a900460ff1660038111156102c3576102c261076c565b5b149050919050565b5f5f9054906101000a900473ffffffffffffffffffffffffffffffffffffffff1673ffffffffffffffffffffffffffffffffffffffff163373ffffffffffffffffffffffffffffffffffffffff1614610359576040517f08c379a000000000000000000000000000000000000000000000000000000000815260040161035090610ac6565b60405180910390fd5b6001600381111561036d5761036c61076c565b5b60015f8373ffffffffffffffffffffffffffffffffffffffff1673ffffffffffffffffffffffffffffffffffffffff1681526020019081526020015f206002015f9054906101000a900460ff1660038111156103cc576103cb61076c565b5b1461040c576040517f08c379a000000000000000000000000000000000000000000000000000000000815260040161040390610b2e565b60405180910390fd5b600260015f8373ffffffffffffffffffffffffffffffffffffffff1673ffffffffffffffffffffffffffffffffffffffff1681526020019081526020015f206002015f6101000a81548160ff0219169083600381111561046f5761046e61076c565b5b021790555050565b5f600381111561048a5761048961076c565b5b60015f3373ffffffffffffffffffffffffffffffffffffffff1673ffffffffffffffffffffffffffffffffffffffff1681526020019081526020015f206002015f9054906101000a900460ff1660038111156104e9576104e861076c565b5b14610529576040517f08c379a000000000000000000000000000000000000000000000000000000000815260040161052090610b96565b60405180910390fd5b6040518060600160405280838152602001828152602001600160038111156105545761055361076c565b5b81525060015f3373ffffffffffffffffffffffffffffffffffffffff1673ffffffffffffffffffffffffffffffffffffffff1681526020019081526020015f205f820151815f0190816105a79190610d6e565b5060208201518160010190816105bd9190610d6e565b506040820151816002015f6101000a81548160ff021916908360038111156105e8576105e761076c565b5b02179055509050503373ffffffffffffffffffffffffffffffffffffffff167faa300db02bf3a86ad9eacd7f338438a99d7870c43b15b9d4987b4cfc177cba7d836040516106369190610e3d565b60405180910390a25050565b5f5f9054906101000a900473ffffffffffffffffffffffffffffffffffffffff1681565b5f604051905090565b5f5ffd5b5f5ffd5b5f73ffffffffffffffffffffffffffffffffffffffff82169050919050565b5f6106a082610677565b9050919050565b6106b081610696565b81146106ba575f5ffd5b50565b5f813590506106cb816106a7565b92915050565b5f602082840312156106e6576106e561066f565b5b5f6106f3848285016106bd565b91505092915050565b5f81519050919050565b5f82825260208201905092915050565b8281835e5f83830152505050565b5f601f19601f8301169050919050565b5f61073e826106fc565b6107488185610706565b9350610758818560208601610716565b61076181610724565b840191505092915050565b7f4e487b71000000000000000000000000000000000000000000000000000000005f52602160045260245ffd5b600481106107aa576107a961076c565b5b50565b5f8190506107ba82610799565b919050565b5f6107c9826107ad565b9050919050565b6107d9816107bf565b82525050565b5f6060820190508181035f8301526107f78186610734565b9050818103602083015261080b8185610734565b905061081a60408301846107d0565b949350505050565b5f8115159050919050565b61083681610822565b82525050565b5f60208201905061084f5f83018461082d565b92915050565b5f5ffd5b5f5ffd5b7f4e487b71000000000000000000000000000000000000000000000000000000005f52604160045260245ffd5b61089382610724565b810181811067ffffffffffffffff821117156108b2576108b161085d565b5b80604052505050565b5f6108c4610666565b90506108d0828261088a565b919050565b5f67ffffffffffffffff8211156108ef576108ee61085d565b5b6108f882610724565b9050602081019050919050565b828183375f83830152505050565b5f610925610920846108d5565b6108bb565b90508281526020810184848401111561094157610940610859565b5b61094c848285610905565b509392505050565b5f82601f83011261096857610967610855565b5b8135610978848260208601610913565b91505092915050565b5f5f604083850312156109975761099661066f565b5b5f83013567ffffffffffffffff8111156109b4576109b3610673565b5b6109c085828601610954565b925050602083013567ffffffffffffffff8111156109e1576109e0610673565b5b6109ed85828601610954565b9150509250929050565b610a0081610696565b82525050565b5f602082019050610a195f8301846109f7565b92915050565b7f4e487b71000000000000000000000000000000000000000000000000000000005f52602260045260245ffd5b5f6002820490506001821680610a6357607f821691505b602082108103610a7657610a75610a1f565b5b50919050565b7f4f6e6c792041646d696e000000000000000000000000000000000000000000005f82015250565b5f610ab0600a83610706565b9150610abb82610a7c565b602082019050919050565b5f6020820190508181035f830152610add81610aa4565b9050919050565b7f4e6f2070656e64696e67207265717565737400000000000000000000000000005f82015250565b5f610b18601283610706565b9150610b2382610ae4565b602082019050919050565b5f6020820190508181035f830152610b4581610b0c565b9050919050565b7f416c7265616479206170706c69656400000000000000000000000000000000005f82015250565b5f610b80600f83610706565b9150610b8b82610b4c565b602082019050919050565b5f6020820190508181035f830152610bad81610b74565b9050919050565b5f819050815f5260205f209050919050565b5f6020601f8301049050919050565b5f82821b905092915050565b5f60088302610c107fffffffffffffffffffffffffffffffffffffffffffffffffffffffffffffffff82610bd5565b610c1a8683610bd5565b95508019841693508086168417925050509392505050565b5f819050919050565b5f819050919050565b5f610c5e610c59610c5484610c32565b610c3b565b610c32565b9050919050565b5f819050919050565b610c7783610c44565b610c8b610c8382610c65565b848454610be1565b825550505050565b5f5f905090565b610ca2610c93565b610cad818484610c6e565b505050565b5f5b82811015610cd357610cc85f828401610c9a565b600181019050610cb4565b505050565b601f821115610d265782821115610d2557610cf281610bb4565b610cfb83610bc6565b610d0485610bc6565b6020861015610d11575f90505b808301610d2082840382610cb2565b505050505b5b505050565b5f82821c905092915050565b5f610d465f1984600802610d2b565b1980831691505092915050565b5f610d5e8383610d37565b9150826002028217905092915050565b610d77826106fc565b67ffffffffffffffff811115610d9057610d8f61085d565b5b610d9a8254610a4c565b610da5828285610cd8565b5f60209050601f831160018114610dd6575f8415610dc4578287015190505b610dce8582610d53565b865550610e35565b601f198416610de486610bb4565b5f5b82811015610e0b57848901518255600182019150602085019450602081019050610de6565b86831015610e285784890151610e24601f891682610d37565b8355505b6001600288020188555050505b505050505050565b5f6020820190508181035f830152610e558184610734565b90509291505056fea2646970667358221220ef4bbccb071459b300fbe67cc0c8dd2e5cbf7507fc4cf90cf3c2fd021514ba1a64736f6c63430008210033","linkReferences":{}},"methodIdentifiers":{"admin()":"f851a440","approveParty(address)":"70627545","isApproved(address)":"673448dd","parties(address)":"4f235207","registerAsParty(string,string)":"85034f17"},"id":1}