{"abi":[{"type":"constructor","inputs":[],"stateMutability":"nonpayable"},{"type":"function","name":"admin","inputs":[],"outputs":[{"name":"","type":"address","internalType":"address"}],"stateMutability":"view"},{"type":"function","name":"approveUser","inputs":[{"name":"_voter","type":"address","internalType":"address"}],"outputs":[],"stateMutability":"nonpayable"},{"type":"function","name":"isApproved","inputs":[{"name":"_voter","type":"address","internalType":"address"}],"outputs":[{"name":"","type":"bool","internalType":"bool"}],"stateMutability":"view"},{"type":"function","name":"registerAsVoter","inputs":[{"name":"_voterAddress","type":"address","internalType":"address"},{"name":"_name","type":"string","internalType":"string"},{"name":"_email","type":"string","internalType":"string"},{"name":"_phone","type":"string","internalType":"string"},{"name":"_nid","type":"string","internalType":"string"}],"outputs":[],"stateMutability":"nonpayable"},{"type":"function","name":"users","inputs":[{"name":"","type":"address","internalType":"address"}],"outputs":[{"name":"name","type":"string","internalType":"string"},{"name":"email","type":"string","internalType":"string"},{"name":"phone","type":"string","internalType":"string"},{"name":"nid","type":"string","internalType":"string"},{"name":"status","type":"uint8","internalType":"enum UserRegistry.Status"}],"stateMutability":"view"},{"type":"event","name":"UserRegistrationRequested","inputs":[{"name":"userAddress","type":"address","indexed":true,"internalType":"address"},{"name":"name","type":"string","indexed":false,"internalType":"string"},{"name":"nid","type":"string","indexed":false,"internalType":"string"}],"anonymous":false}],"bytecode":{"object":"0x6080604052348015600e575f5ffd5b50335f5f6101000a81548173ffffffffffffffffffffffffffffffffffffffff021916908373ffffffffffffffffffffffffffffffffffffffff1602179055506110758061005b5f395ff3fe608060405234801561000f575f5ffd5b5060043610610055575f3560e01c80634903e52e14610059578063673448dd14610075578063a87430ba146100a5578063d624fdb6146100d9578063f851a440146100f5575b5f5ffd5b610073600480360381019061006e919061093f565b610113565b005b61008f600480360381019061008a9190610a26565b6103a9565b60405161009c9190610a6b565b60405180910390f35b6100bf60048036038101906100ba9190610a26565b610425565b6040516100d0959493929190610b57565b60405180910390f35b6100f360048036038101906100ee9190610a26565b61067b565b005b6100fd610774565b60405161010a9190610bd3565b60405180910390f35b5f5f9054906101000a900473ffffffffffffffffffffffffffffffffffffffff1673ffffffffffffffffffffffffffffffffffffffff163373ffffffffffffffffffffffffffffffffffffffff16146101a1576040517f08c379a000000000000000000000000000000000000000000000000000000000815260040161019890610c36565b60405180910390fd5b5f60038111156101b4576101b3610ae4565b5b60015f8773ffffffffffffffffffffffffffffffffffffffff1673ffffffffffffffffffffffffffffffffffffffff1681526020019081526020015f206004015f9054906101000a900460ff16600381111561021357610212610ae4565b5b14610253576040517f08c379a000000000000000000000000000000000000000000000000000000000815260040161024a90610c9e565b60405180910390fd5b6040518060a001604052808581526020018481526020018381526020018281526020016002600381111561028a57610289610ae4565b5b81525060015f8773ffffffffffffffffffffffffffffffffffffffff1673ffffffffffffffffffffffffffffffffffffffff1681526020019081526020015f205f820151815f0190816102dd9190610ed3565b5060208201518160010190816102f39190610ed3565b5060408201518160020190816103099190610ed3565b50606082015181600301908161031f9190610ed3565b506080820151816004015f6101000a81548160ff0219169083600381111561034a57610349610ae4565b5b02179055509050508473ffffffffffffffffffffffffffffffffffffffff167f902a5af86618e1ef24b8907da6273a568e3497d18dda90a8b69bfe8cebfe7627858360405161039a929190610fa2565b60405180910390a25050505050565b5f600260038111156103be576103bd610ae4565b5b60015f8473ffffffffffffffffffffffffffffffffffffffff1673ffffffffffffffffffffffffffffffffffffffff1681526020019081526020015f206004015f9054906101000a900460ff16600381111561041d5761041c610ae4565b5b149050919050565b6001602052805f5260405f205f91509050805f01805461044490610ce9565b80601f016020809104026020016040519081016040528092919081815260200182805461047090610ce9565b80156104bb5780601f10610492576101008083540402835291602001916104bb565b820191905f5260205f20905b81548152906001019060200180831161049e57829003601f168201915b5050505050908060010180546104d090610ce9565b80601f01602080910402602001604051908101604052809291908181526020018280546104fc90610ce9565b80156105475780601f1061051e57610100808354040283529160200191610547565b820191905f5260205f20905b81548152906001019060200180831161052a57829003601f168201915b50505050509080600201805461055c90610ce9565b80601f016020809104026020016040519081016040528092919081815260200182805461058890610ce9565b80156105d35780601f106105aa576101008083540402835291602001916105d3565b820191905f5260205f20905b8154815290600101906020018083116105b657829003601f168201915b5050505050908060030180546105e890610ce9565b80601f016020809104026020016040519081016040528092919081815260200182805461061490610ce9565b801561065f5780601f106106365761010080835404028352916020019161065f565b820191905f5260205f20905b81548152906001019060200180831161064257829003601f168201915b505050505090806004015f9054906101000a900460ff16905085565b5f5f9054906101000a900473ffffffffffffffffffffffffffffffffffffffff1673ffffffffffffffffffffffffffffffffffffffff163373ffffffffffffffffffffffffffffffffffffffff1614610709576040517f08c379a000000000000000000000000000000000000000000000000000000000815260040161070090611021565b60405180910390fd5b600260015f8373ffffffffffffffffffffffffffffffffffffffff1673ffffffffffffffffffffffffffffffffffffffff1681526020019081526020015f206004015f6101000a81548160ff0219169083600381111561076c5761076b610ae4565b5b021790555050565b5f5f9054906101000a900473ffffffffffffffffffffffffffffffffffffffff1681565b5f604051905090565b5f5ffd5b5f5ffd5b5f73ffffffffffffffffffffffffffffffffffffffff82169050919050565b5f6107d2826107a9565b9050919050565b6107e2816107c8565b81146107ec575f5ffd5b50565b5f813590506107fd816107d9565b92915050565b5f5ffd5b5f5ffd5b5f601f19601f8301169050919050565b7f4e487b71000000000000000000000000000000000000000000000000000000005f52604160045260245ffd5b6108518261080b565b810181811067ffffffffffffffff821117156108705761086f61081b565b5b80604052505050565b5f610882610798565b905061088e8282610848565b919050565b5f67ffffffffffffffff8211156108ad576108ac61081b565b5b6108b68261080b565b9050602081019050919050565b828183375f83830152505050565b5f6108e36108de84610893565b610879565b9050828152602081018484840111156108ff576108fe610807565b5b61090a8482856108c3565b509392505050565b5f82601f83011261092657610925610803565b5b81356109368482602086016108d1565b91505092915050565b5f5f5f5f5f60a08688031215610958576109576107a1565b5b5f610965888289016107ef565b955050602086013567ffffffffffffffff811115610986576109856107a5565b5b61099288828901610912565b945050604086013567ffffffffffffffff8111156109b3576109b26107a5565b5b6109bf88828901610912565b935050606086013567ffffffffffffffff8111156109e0576109df6107a5565b5b6109ec88828901610912565b925050608086013567ffffffffffffffff811115610a0d57610a0c6107a5565b5b610a1988828901610912565b9150509295509295909350565b5f60208284031215610a3b57610a3a6107a1565b5b5f610a48848285016107ef565b91505092915050565b5f8115159050919050565b610a6581610a51565b82525050565b5f602082019050610a7e5f830184610a5c565b92915050565b5f81519050919050565b5f82825260208201905092915050565b8281835e5f83830152505050565b5f610ab682610a84565b610ac08185610a8e565b9350610ad0818560208601610a9e565b610ad98161080b565b840191505092915050565b7f4e487b71000000000000000000000000000000000000000000000000000000005f52602160045260245ffd5b60048110610b2257610b21610ae4565b5b50565b5f819050610b3282610b11565b919050565b5f610b4182610b25565b9050919050565b610b5181610b37565b82525050565b5f60a0820190508181035f830152610b6f8188610aac565b90508181036020830152610b838187610aac565b90508181036040830152610b978186610aac565b90508181036060830152610bab8185610aac565b9050610bba6080830184610b48565b9695505050505050565b610bcd816107c8565b82525050565b5f602082019050610be65f830184610bc4565b92915050565b7f4f6e6c792041646d696e2063616e20726567697374657220766f7465727300005f82015250565b5f610c20601e83610a8e565b9150610c2b82610bec565b602082019050919050565b5f6020820190508181035f830152610c4d81610c14565b9050919050565b7f416c7265616479207265676973746572656400000000000000000000000000005f82015250565b5f610c88601283610a8e565b9150610c9382610c54565b602082019050919050565b5f6020820190508181035f830152610cb581610c7c565b9050919050565b7f4e487b71000000000000000000000000000000000000000000000000000000005f52602260045260245ffd5b5f6002820490506001821680610d0057607f821691505b602082108103610d1357610d12610cbc565b5b50919050565b5f819050815f5260205f209050919050565b5f6020601f8301049050919050565b5f82821b905092915050565b5f60088302610d757fffffffffffffffffffffffffffffffffffffffffffffffffffffffffffffffff82610d3a565b610d7f8683610d3a565b95508019841693508086168417925050509392505050565b5f819050919050565b5f819050919050565b5f610dc3610dbe610db984610d97565b610da0565b610d97565b9050919050565b5f819050919050565b610ddc83610da9565b610df0610de882610dca565b848454610d46565b825550505050565b5f5f905090565b610e07610df8565b610e12818484610dd3565b505050565b5f5b82811015610e3857610e2d5f828401610dff565b600181019050610e19565b505050565b601f821115610e8b5782821115610e8a57610e5781610d19565b610e6083610d2b565b610e6985610d2b565b6020861015610e76575f90505b808301610e8582840382610e17565b505050505b5b505050565b5f82821c905092915050565b5f610eab5f1984600802610e90565b1980831691505092915050565b5f610ec38383610e9c565b9150826002028217905092915050565b610edc82610a84565b67ffffffffffffffff811115610ef557610ef461081b565b5b610eff8254610ce9565b610f0a828285610e3d565b5f60209050601f831160018114610f3b575f8415610f29578287015190505b610f338582610eb8565b865550610f9a565b601f198416610f4986610d19565b5f5b82811015610f7057848901518255600182019150602085019450602081019050610f4b565b86831015610f8d5784890151610f89601f891682610e9c565b8355505b6001600288020188555050505b505050505050565b5f6040820190508181035f830152610fba8185610aac565b90508181036020830152610fce8184610aac565b90509392505050565b7f4f6e6c792041646d696e000000000000000000000000000000000000000000005f82015250565b5f61100b600a83610a8e565b915061101682610fd7565b602082019050919050565b5f6020820190508181035f83015261103881610fff565b905091905056fea2646970667358221220b419882108fd9279e1ac9f8a3663b1d8b3505452c50ac619ccfc45b7b3f665a164736f6c63430008210033","linkReferences":{}},"methodIdentifiers":{"admin()":"f851a440","approveUser(address)":"d624fdb6","isApproved(address)":"673448dd","registerAsVoter(address,string,string,string,string)":"4903e52e","users(address)":"a87430ba"},"id":18}