{"abi":[{"type":"constructor","inputs":[],"stateMutability":"nonpayable"},{"type":"function","name":"admin","inputs":[],"outputs":[{"name":"","type":"address","internalType":"address"}],"stateMutability":"view"},{"type":"function","name":"approveUser","inputs":[{"name":"_voter","type":"address","internalType":"address"}],"outputs":[],"stateMutability":"nonpayable"},{"type":"function","name":"isApproved","inputs":[{"name":"_voter","type":"address","internalType":"address"}],"outputs":[{"name":"","type":"bool","internalType":"bool"}],"stateMutability":"view"},{"type":"function","name":"registerAsVoter","inputs":[{"name":"_name","type":"string","internalType":"string"},{"name":"_email","type":"string","internalType":"string"},{"name":"_phone","type":"string","internalType":"string"},{"name":"_nid","type":"string","internalType":"string"}],"outputs":[],"stateMutability":"nonpayable"},{"type":"function","name":"users","inputs":[{"name":"","type":"address","internalType":"address"}],"outputs":[{"name":"name","type":"string","internalType":"string"},{"name":"email","type":"string","internalType":"string"},{"name":"phone","type":"string","internalType":"string"},{"name":"nid","type":"string","internalType":"string"},{"name":"status","type":"uint8","internalType":"enum UserRegistry.Status"}],"stateMutability":"view"},{"type":"event","name":"UserRegistrationRequested","inputs":[{"name":"userAddress","type":"address","indexed":true,"internalType":"address"},{"name":"name","type":"string","indexed":false,"internalType":"string"},{"name":"nid","type":"string","indexed":false,"internalType":"string"}],"anonymous":false}],"bytecode":{"object":"0x6080604052348015600e575f5ffd5b50335f5f6101000a81548173ffffffffffffffffffffffffffffffffffffffff021916908373ffffffffffffffffffffffffffffffffffffffff160217905550610ee68061005b5f395ff3fe608060405234801561000f575f5ffd5b5060043610610055575f3560e01c8063673448dd14610059578063a87430ba14610089578063c50a7ec5146100bd578063d624fdb6146100d9578063f851a440146100f5575b5f5ffd5b610073600480360381019061006e9190610724565b610113565b6040516100809190610769565b60405180910390f35b6100a3600480360381019061009e9190610724565b61018f565b6040516100b4959493929190610865565b60405180910390f35b6100d760048036038101906100d291906109fe565b6103e5565b005b6100f360048036038101906100ee9190610724565b61059c565b005b6100fd610695565b60405161010a9190610ae1565b60405180910390f35b5f60026003811115610128576101276107f2565b5b60015f8473ffffffffffffffffffffffffffffffffffffffff1673ffffffffffffffffffffffffffffffffffffffff1681526020019081526020015f206004015f9054906101000a900460ff166003811115610187576101866107f2565b5b149050919050565b6001602052805f5260405f205f91509050805f0180546101ae90610b27565b80601f01602080910402602001604051908101604052809291908181526020018280546101da90610b27565b80156102255780601f106101fc57610100808354040283529160200191610225565b820191905f5260205f20905b81548152906001019060200180831161020857829003601f168201915b50505050509080600101805461023a90610b27565b80601f016020809104026020016040519081016040528092919081815260200182805461026690610b27565b80156102b15780601f10610288576101008083540402835291602001916102b1565b820191905f5260205f20905b81548152906001019060200180831161029457829003601f168201915b5050505050908060020180546102c690610b27565b80601f01602080910402602001604051908101604052809291908181526020018280546102f290610b27565b801561033d5780601f106103145761010080835404028352916020019161033d565b820191905f5260205f20905b81548152906001019060200180831161032057829003601f168201915b50505050509080600301805461035290610b27565b80601f016020809104026020016040519081016040528092919081815260200182805461037e90610b27565b80156103c95780601f106103a0576101008083540402835291602001916103c9565b820191905f5260205f20905b8154815290600101906020018083116103ac57829003601f168201915b505050505090806004015f9054906101000a900460ff16905085565b5f60038111156103f8576103f76107f2565b5b60015f3373ffffffffffffffffffffffffffffffffffffffff1673ffffffffffffffffffffffffffffffffffffffff1681526020019081526020015f206004015f9054906101000a900460ff166003811115610457576104566107f2565b5b14610497576040517f08c379a000000000000000000000000000000000000000000000000000000000815260040161048e90610ba1565b60405180910390fd5b6040518060a00160405280858152602001848152602001838152602001828152602001600160038111156104ce576104cd6107f2565b5b81525060015f3373ffffffffffffffffffffffffffffffffffffffff1673ffffffffffffffffffffffffffffffffffffffff1681526020019081526020015f205f820151815f0190816105219190610d79565b5060208201518160010190816105379190610d79565b50604082015181600201908161054d9190610d79565b5060608201518160030190816105639190610d79565b506080820151816004015f6101000a81548160ff0219169083600381111561058e5761058d6107f2565b5b021790555090505050505050565b5f5f9054906101000a900473ffffffffffffffffffffffffffffffffffffffff1673ffffffffffffffffffffffffffffffffffffffff163373ffffffffffffffffffffffffffffffffffffffff161461062a576040517f08c379a000000000000000000000000000000000000000000000000000000000815260040161062190610e92565b60405180910390fd5b600260015f8373ffffffffffffffffffffffffffffffffffffffff1673ffffffffffffffffffffffffffffffffffffffff1681526020019081526020015f206004015f6101000a81548160ff0219169083600381111561068d5761068c6107f2565b5b021790555050565b5f5f9054906101000a900473ffffffffffffffffffffffffffffffffffffffff1681565b5f604051905090565b5f5ffd5b5f5ffd5b5f73ffffffffffffffffffffffffffffffffffffffff82169050919050565b5f6106f3826106ca565b9050919050565b610703816106e9565b811461070d575f5ffd5b50565b5f8135905061071e816106fa565b92915050565b5f60208284031215610739576107386106c2565b5b5f61074684828501610710565b91505092915050565b5f8115159050919050565b6107638161074f565b82525050565b5f60208201905061077c5f83018461075a565b92915050565b5f81519050919050565b5f82825260208201905092915050565b8281835e5f83830152505050565b5f601f19601f8301169050919050565b5f6107c482610782565b6107ce818561078c565b93506107de81856020860161079c565b6107e7816107aa565b840191505092915050565b7f4e487b71000000000000000000000000000000000000000000000000000000005f52602160045260245ffd5b600481106108305761082f6107f2565b5b50565b5f8190506108408261081f565b919050565b5f61084f82610833565b9050919050565b61085f81610845565b82525050565b5f60a0820190508181035f83015261087d81886107ba565b9050818103602083015261089181876107ba565b905081810360408301526108a581866107ba565b905081810360608301526108b981856107ba565b90506108c86080830184610856565b9695505050505050565b5f5ffd5b5f5ffd5b7f4e487b71000000000000000000000000000000000000000000000000000000005f52604160045260245ffd5b610910826107aa565b810181811067ffffffffffffffff8211171561092f5761092e6108da565b5b80604052505050565b5f6109416106b9565b905061094d8282610907565b919050565b5f67ffffffffffffffff82111561096c5761096b6108da565b5b610975826107aa565b9050602081019050919050565b828183375f83830152505050565b5f6109a261099d84610952565b610938565b9050828152602081018484840111156109be576109bd6108d6565b5b6109c9848285610982565b509392505050565b5f82601f8301126109e5576109e46108d2565b5b81356109f5848260208601610990565b91505092915050565b5f5f5f5f60808587031215610a1657610a156106c2565b5b5f85013567ffffffffffffffff811115610a3357610a326106c6565b5b610a3f878288016109d1565b945050602085013567ffffffffffffffff811115610a6057610a5f6106c6565b5b610a6c878288016109d1565b935050604085013567ffffffffffffffff811115610a8d57610a8c6106c6565b5b610a99878288016109d1565b925050606085013567ffffffffffffffff811115610aba57610ab96106c6565b5b610ac6878288016109d1565b91505092959194509250565b610adb816106e9565b82525050565b5f602082019050610af45f830184610ad2565b92915050565b7f4e487b71000000000000000000000000000000000000000000000000000000005f52602260045260245ffd5b5f6002820490506001821680610b3e57607f821691505b602082108103610b5157610b50610afa565b5b50919050565b7f416c7265616479206170706c69656400000000000000000000000000000000005f82015250565b5f610b8b600f8361078c565b9150610b9682610b57565b602082019050919050565b5f6020820190508181035f830152610bb881610b7f565b9050919050565b5f819050815f5260205f209050919050565b5f6020601f8301049050919050565b5f82821b905092915050565b5f60088302610c1b7fffffffffffffffffffffffffffffffffffffffffffffffffffffffffffffffff82610be0565b610c258683610be0565b95508019841693508086168417925050509392505050565b5f819050919050565b5f819050919050565b5f610c69610c64610c5f84610c3d565b610c46565b610c3d565b9050919050565b5f819050919050565b610c8283610c4f565b610c96610c8e82610c70565b848454610bec565b825550505050565b5f5f905090565b610cad610c9e565b610cb8818484610c79565b505050565b5f5b82811015610cde57610cd35f828401610ca5565b600181019050610cbf565b505050565b601f821115610d315782821115610d3057610cfd81610bbf565b610d0683610bd1565b610d0f85610bd1565b6020861015610d1c575f90505b808301610d2b82840382610cbd565b505050505b5b505050565b5f82821c905092915050565b5f610d515f1984600802610d36565b1980831691505092915050565b5f610d698383610d42565b9150826002028217905092915050565b610d8282610782565b67ffffffffffffffff811115610d9b57610d9a6108da565b5b610da58254610b27565b610db0828285610ce3565b5f60209050601f831160018114610de1575f8415610dcf578287015190505b610dd98582610d5e565b865550610e40565b601f198416610def86610bbf565b5f5b82811015610e1657848901518255600182019150602085019450602081019050610df1565b86831015610e335784890151610e2f601f891682610d42565b8355505b6001600288020188555050505b505050505050565b7f4f6e6c792041646d696e000000000000000000000000000000000000000000005f82015250565b5f610e7c600a8361078c565b9150610e8782610e48565b602082019050919050565b5f6020820190508181035f830152610ea981610e70565b905091905056fea26469706673582212208e8cb06a2c10032c81599e068aa2a969cfe0f9d4b1992258a78b3207af470c5964736f6c63430008210033","linkReferences":{}},"methodIdentifiers":{"admin()":"f851a440","approveUser(address)":"d624fdb6","isApproved(address)":"673448dd","registerAsVoter(string,string,string,string)":"c50a7ec5","users(address)":"a87430ba"},"id":2}